{
    "_format": "hh-sol-artifact-1",
    "contractName": "LOR",
    "sourceName": "contracts/LOR.sol",
    "abi": [
        {
            "inputs": [],
            "stateMutability": "nonpayable",
            "type": "constructor"
        },
        {
            "anonymous": false,
            "inputs": [
                {
                    "indexed": true,
                    "internalType": "uint256",
                    "name": "requestId",
                    "type": "uint256"
                },
                {
                    "indexed": true,
                    "internalType": "address",
                    "name": "approver",
                    "type": "address"
                },
                {
                    "indexed": true,
                    "internalType": "address",
                    "name": "student",
                    "type": "address"
                }
            ],
            "name": "LORApproved",
            "type": "event"
        },
        {
            "anonymous": false,
            "inputs": [
                {
                    "indexed": true,
                    "internalType": "uint256",
                    "name": "requestId",
                    "type": "uint256"
                },
                {
                    "indexed": true,
                    "internalType": "address",
                    "name": "approver",
                    "type": "address"
                },
                {
                    "indexed": true,
                    "internalType": "address",
                    "name": "student",
                    "type": "address"
                }
            ],
            "name": "LORRejected",
            "type": "event"
        },
        {
            "anonymous": false,
            "inputs": [
                {
                    "indexed": true,
                    "internalType": "uint256",
                    "name": "requestId",
                    "type": "uint256"
                },
                {
                    "indexed": true,
                    "internalType": "address",
                    "name": "student",
                    "type": "address"
                }
            ],
            "name": "LORRequested",
            "type": "event"
        },
        {
            "anonymous": false,
            "inputs": [
                {
                    "indexed": true,
                    "internalType": "uint256",
                    "name": "requestId",
                    "type": "uint256"
                },
                {
                    "indexed": true,
                    "internalType": "address",
                    "name": "student",
                    "type": "address"
                }
            ],
            "name": "StudentRequest",
            "type": "event"
        },
        {
            "inputs": [
                {
                    "internalType": "uint256",
                    "name": "_requestId",
                    "type": "uint256"
                }
            ],
            "name": "approveLORRequest",
            "outputs": [],
            "stateMutability": "nonpayable",
            "type": "function"
        },
        {
            "inputs": [],
            "name": "approver",
            "outputs": [
                {
                    "internalType": "address",
                    "name": "",
                    "type": "address"
                }
            ],
            "stateMutability": "view",
            "type": "function"
        },
        {
            "inputs": [
                {
                    "internalType": "uint256",
                    "name": "_requestId",
                    "type": "uint256"
                },
                {
                    "internalType": "address",
                    "name": "_studentAddress",
                    "type": "address"
                },
                {
                    "internalType": "string",
                    "name": "_name",
                    "type": "string"
                },
                {
                    "internalType": "string",
                    "name": "_program",
                    "type": "string"
                },
                {
                    "internalType": "string",
                    "name": "_university",
                    "type": "string"
                }
            ],
            "name": "createLORRequest",
            "outputs": [],
            "stateMutability": "nonpayable",
            "type": "function"
        },
        {
            "inputs": [
                {
                    "internalType": "uint256",
                    "name": "_requestId",
                    "type": "uint256"
                }
            ],
            "name": "getLORRequest",
            "outputs": [
                {
                    "components": [
                        {
                            "internalType": "uint256",
                            "name": "requestId",
                            "type": "uint256"
                        },
                        {
                            "internalType": "address",
                            "name": "requester",
                            "type": "address"
                        },
                        {
                            "internalType": "string",
                            "name": "name",
                            "type": "string"
                        },
                        {
                            "internalType": "string",
                            "name": "program",
                            "type": "string"
                        },
                        {
                            "internalType": "string",
                            "name": "university",
                            "type": "string"
                        },
                        {
                            "internalType": "address",
                            "name": "studentAddress",
                            "type": "address"
                        },
                        {
                            "internalType": "bool",
                            "name": "isApproved",
                            "type": "bool"
                        },
                        {
                            "internalType": "bool",
                            "name": "isRejected",
                            "type": "bool"
                        },
                        {
                            "internalType": "address",
                            "name": "approver",
                            "type": "address"
                        }
                    ],
                    "internalType": "struct LOR.LORRequest",
                    "name": "",
                    "type": "tuple"
                }
            ],
            "stateMutability": "view",
            "type": "function"
        },
        {
            "inputs": [
                {
                    "internalType": "uint256",
                    "name": "",
                    "type": "uint256"
                }
            ],
            "name": "lorRequests",
            "outputs": [
                {
                    "internalType": "uint256",
                    "name": "requestId",
                    "type": "uint256"
                },
                {
                    "internalType": "address",
                    "name": "requester",
                    "type": "address"
                },
                {
                    "internalType": "string",
                    "name": "name",
                    "type": "string"
                },
                {
                    "internalType": "string",
                    "name": "program",
                    "type": "string"
                },
                {
                    "internalType": "string",
                    "name": "university",
                    "type": "string"
                },
                {
                    "internalType": "address",
                    "name": "studentAddress",
                    "type": "address"
                },
                {
                    "internalType": "bool",
                    "name": "isApproved",
                    "type": "bool"
                },
                {
                    "internalType": "bool",
                    "name": "isRejected",
                    "type": "bool"
                },
                {
                    "internalType": "address",
                    "name": "approver",
                    "type": "address"
                }
            ],
            "stateMutability": "view",
            "type": "function"
        },
        {
            "inputs": [],
            "name": "owner",
            "outputs": [
                {
                    "internalType": "address",
                    "name": "",
                    "type": "address"
                }
            ],
            "stateMutability": "view",
            "type": "function"
        },
        {
            "inputs": [
                {
                    "internalType": "uint256",
                    "name": "_requestId",
                    "type": "uint256"
                }
            ],
            "name": "rejectLORRequest",
            "outputs": [],
            "stateMutability": "nonpayable",
            "type": "function"
        },
        {
            "inputs": [
                {
                    "internalType": "address",
                    "name": "_newApprover",
                    "type": "address"
                }
            ],
            "name": "updateApprover",
            "outputs": [],
            "stateMutability": "nonpayable",
            "type": "function"
        }
    ],
    "bytecode": "0x6080604052348015600f57600080fd5b50336000806101000a81548173ffffffffffffffffffffffffffffffffffffffff021916908373ffffffffffffffffffffffffffffffffffffffff16021790555033600160006101000a81548173ffffffffffffffffffffffffffffffffffffffff021916908373ffffffffffffffffffffffffffffffffffffffff160217905550611e45806100a06000396000f3fe608060405234801561001057600080fd5b50600436106100885760003560e01c8063a131eb111161005b578063a131eb1114610101578063bd7da65414610131578063df5441201461014d578063ea1e08cf1461016957610088565b8063141a8dd81461008d57806360afc2d1146100ab5780638da5cb5b146100c7578063958fa94d146100e5575b600080fd5b6100956101a1565b6040516100a29190611214565b60405180910390f35b6100c560048036038101906100c091906113eb565b6101c7565b005b6100cf61053f565b6040516100dc9190611214565b60405180910390f35b6100ff60048036038101906100fa91906114ba565b610563565b005b61011b600480360381019061011691906114ba565b6107df565b6040516101289190611672565b60405180910390f35b61014b60048036038101906101469190611694565b610b05565b005b610167600480360381019061016291906114ba565b610c65565b005b610183600480360381019061017e91906114ba565b610ee1565b60405161019899989796959493929190611729565b60405180910390f35b600160009054906101000a900473ffffffffffffffffffffffffffffffffffffffff1681565b6000851161020a576040517f08c379a000000000000000000000000000000000000000000000000000000000815260040161020190611817565b60405180910390fd5b600073ffffffffffffffffffffffffffffffffffffffff166002600087815260200190815260200160002060050160009054906101000a900473ffffffffffffffffffffffffffffffffffffffff1673ffffffffffffffffffffffffffffffffffffffff16146102af576040517f08c379a00000000000000000000000000000000000000000000000000000000081526004016102a690611883565b60405180910390fd5b6040518061012001604052808681526020013373ffffffffffffffffffffffffffffffffffffffff1681526020018481526020018381526020018281526020018573ffffffffffffffffffffffffffffffffffffffff168152602001600015158152602001600015158152602001600073ffffffffffffffffffffffffffffffffffffffff16815250600260008781526020019081526020016000206000820151816000015560208201518160010160006101000a81548173ffffffffffffffffffffffffffffffffffffffff021916908373ffffffffffffffffffffffffffffffffffffffff16021790555060408201518160020190816103b19190611aaf565b5060608201518160030190816103c79190611aaf565b5060808201518160040190816103dd9190611aaf565b5060a08201518160050160006101000a81548173ffffffffffffffffffffffffffffffffffffffff021916908373ffffffffffffffffffffffffffffffffffffffff16021790555060c08201518160050160146101000a81548160ff02191690831515021790555060e08201518160050160156101000a81548160ff0219169083151502179055506101008201518160060160006101000a81548173ffffffffffffffffffffffffffffffffffffffff021916908373ffffffffffffffffffffffffffffffffffffffff1602179055509050508373ffffffffffffffffffffffffffffffffffffffff16857f568e9fae6e00e75907ec329bd190e965e68b0431ca0110c4ca6a4f98eb674be160405160405180910390a38373ffffffffffffffffffffffffffffffffffffffff16857fd3aae4fd4108ec77a7172e2c106bbef22862a319847790e56337b56dfaebe98f60405160405180910390a35050505050565b60008054906101000a900473ffffffffffffffffffffffffffffffffffffffff1681565b600160009054906101000a900473ffffffffffffffffffffffffffffffffffffffff1673ffffffffffffffffffffffffffffffffffffffff163373ffffffffffffffffffffffffffffffffffffffff16146105f3576040517f08c379a00000000000000000000000000000000000000000000000000000000081526004016105ea90611bf3565b60405180910390fd5b600015156002600083815260200190815260200160002060050160149054906101000a900460ff1615151461065d576040517f08c379a000000000000000000000000000000000000000000000000000000000815260040161065490611c5f565b60405180910390fd5b600015156002600083815260200190815260200160002060050160159054906101000a900460ff161515146106c7576040517f08c379a00000000000000000000000000000000000000000000000000000000081526004016106be90611ccb565b60405180910390fd5b60016002600083815260200190815260200160002060050160146101000a81548160ff021916908315150217905550336002600083815260200190815260200160002060060160006101000a81548173ffffffffffffffffffffffffffffffffffffffff021916908373ffffffffffffffffffffffffffffffffffffffff1602179055506002600082815260200190815260200160002060050160009054906101000a900473ffffffffffffffffffffffffffffffffffffffff1673ffffffffffffffffffffffffffffffffffffffff163373ffffffffffffffffffffffffffffffffffffffff16827f627cbb1e57205ee2f0282a703cdf2db3f5b919ebc16daadff9b511e65b3416da60405160405180910390a450565b6107e7611141565b6002600083815260200190815260200160002060405180610120016040529081600082015481526020016001820160009054906101000a900473ffffffffffffffffffffffffffffffffffffffff1673ffffffffffffffffffffffffffffffffffffffff1673ffffffffffffffffffffffffffffffffffffffff168152602001600282018054610876906118d2565b80601f01602080910402602001604051908101604052809291908181526020018280546108a2906118d2565b80156108ef5780601f106108c4576101008083540402835291602001916108ef565b820191906000526020600020905b8154815290600101906020018083116108d257829003601f168201915b50505050508152602001600382018054610908906118d2565b80601f0160208091040260200160405190810160405280929190818152602001828054610934906118d2565b80156109815780601f1061095657610100808354040283529160200191610981565b820191906000526020600020905b81548152906001019060200180831161096457829003601f168201915b5050505050815260200160048201805461099a906118d2565b80601f01602080910402602001604051908101604052809291908181526020018280546109c6906118d2565b8015610a135780601f106109e857610100808354040283529160200191610a13565b820191906000526020600020905b8154815290600101906020018083116109f657829003601f168201915b505050505081526020016005820160009054906101000a900473ffffffffffffffffffffffffffffffffffffffff1673ffffffffffffffffffffffffffffffffffffffff1673ffffffffffffffffffffffffffffffffffffffff1681526020016005820160149054906101000a900460ff161515151581526020016005820160159054906101000a900460ff161515151581526020016006820160009054906101000a900473ffffffffffffffffffffffffffffffffffffffff1673ffffffffffffffffffffffffffffffffffffffff1673ffffffffffffffffffffffffffffffffffffffff16815250509050919050565b60008054906101000a900473ffffffffffffffffffffffffffffffffffffffff1673ffffffffffffffffffffffffffffffffffffffff163373ffffffffffffffffffffffffffffffffffffffff1614610b93576040517f08c379a0000000000000000000000000000000000000000000000000000000008152600401610b8a90611d5d565b60405180910390fd5b60008054906101000a900473ffffffffffffffffffffffffffffffffffffffff1673ffffffffffffffffffffffffffffffffffffffff163373ffffffffffffffffffffffffffffffffffffffff1614610c21576040517f08c379a0000000000000000000000000000000000000000000000000000000008152600401610c1890611def565b60405180910390fd5b80600160006101000a81548173ffffffffffffffffffffffffffffffffffffffff021916908373ffffffffffffffffffffffffffffffffffffffff16021790555050565b600160009054906101000a900473ffffffffffffffffffffffffffffffffffffffff1673ffffffffffffffffffffffffffffffffffffffff163373ffffffffffffffffffffffffffffffffffffffff1614610cf5576040517f08c379a0000000000000000000000000000000000000000000000000000000008152600401610cec90611bf3565b60405180910390fd5b600015156002600083815260200190815260200160002060050160149054906101000a900460ff16151514610d5f576040517f08c379a0000000000000000000000000000000000000000000000000000000008152600401610d5690611c5f565b60405180910390fd5b600015156002600083815260200190815260200160002060050160159054906101000a900460ff16151514610dc9576040517f08c379a0000000000000000000000000000000000000000000000000000000008152600401610dc090611ccb565b60405180910390fd5b60016002600083815260200190815260200160002060050160156101000a81548160ff021916908315150217905550336002600083815260200190815260200160002060060160006101000a81548173ffffffffffffffffffffffffffffffffffffffff021916908373ffffffffffffffffffffffffffffffffffffffff1602179055506002600082815260200190815260200160002060050160009054906101000a900473ffffffffffffffffffffffffffffffffffffffff1673ffffffffffffffffffffffffffffffffffffffff163373ffffffffffffffffffffffffffffffffffffffff16827f31c26d74dae8979c326502d86370e401f360ae26a63010aca1af5742f184e54460405160405180910390a450565b60026020528060005260406000206000915090508060000154908060010160009054906101000a900473ffffffffffffffffffffffffffffffffffffffff1690806002018054610f30906118d2565b80601f0160208091040260200160405190810160405280929190818152602001828054610f5c906118d2565b8015610fa95780601f10610f7e57610100808354040283529160200191610fa9565b820191906000526020600020905b815481529060010190602001808311610f8c57829003601f168201915b505050505090806003018054610fbe906118d2565b80601f0160208091040260200160405190810160405280929190818152602001828054610fea906118d2565b80156110375780601f1061100c57610100808354040283529160200191611037565b820191906000526020600020905b81548152906001019060200180831161101a57829003601f168201915b50505050509080600401805461104c906118d2565b80601f0160208091040260200160405190810160405280929190818152602001828054611078906118d2565b80156110c55780601f1061109a576101008083540402835291602001916110c5565b820191906000526020600020905b8154815290600101906020018083116110a857829003601f168201915b5050505050908060050160009054906101000a900473ffffffffffffffffffffffffffffffffffffffff16908060050160149054906101000a900460ff16908060050160159054906101000a900460ff16908060060160009054906101000a900473ffffffffffffffffffffffffffffffffffffffff16905089565b60405180610120016040528060008152602001600073ffffffffffffffffffffffffffffffffffffffff168152602001606081526020016060815260200160608152602001600073ffffffffffffffffffffffffffffffffffffffff168152602001600015158152602001600015158152602001600073ffffffffffffffffffffffffffffffffffffffff1681525090565b600073ffffffffffffffffffffffffffffffffffffffff82169050919050565b60006111fe826111d3565b9050919050565b61120e816111f3565b82525050565b60006020820190506112296000830184611205565b92915050565b6000604051905090565b600080fd5b600080fd5b6000819050919050565b61125681611243565b811461126157600080fd5b50565b6000813590506112738161124d565b92915050565b611282816111f3565b811461128d57600080fd5b50565b60008135905061129f81611279565b92915050565b600080fd5b600080fd5b6000601f19601f8301169050919050565b7f4e487b7100000000000000000000000000000000000000000000000000000000600052604160045260246000fd5b6112f8826112af565b810181811067ffffffffffffffff82111715611317576113166112c0565b5b80604052505050565b600061132a61122f565b905061133682826112ef565b919050565b600067ffffffffffffffff821115611356576113556112c0565b5b61135f826112af565b9050602081019050919050565b82818337600083830152505050565b600061138e6113898461133b565b611320565b9050828152602081018484840111156113aa576113a96112aa565b5b6113b584828561136c565b509392505050565b600082601f8301126113d2576113d16112a5565b5b81356113e284826020860161137b565b91505092915050565b600080600080600060a0868803121561140757611406611239565b5b600061141588828901611264565b955050602061142688828901611290565b945050604086013567ffffffffffffffff8111156114475761144661123e565b5b611453888289016113bd565b935050606086013567ffffffffffffffff8111156114745761147361123e565b5b611480888289016113bd565b925050608086013567ffffffffffffffff8111156114a1576114a061123e565b5b6114ad888289016113bd565b9150509295509295909350565b6000602082840312156114d0576114cf611239565b5b60006114de84828501611264565b91505092915050565b6114f081611243565b82525050565b6114ff816111f3565b82525050565b600081519050919050565b600082825260208201905092915050565b60005b8381101561153f578082015181840152602081019050611524565b60008484015250505050565b600061155682611505565b6115608185611510565b9350611570818560208601611521565b611579816112af565b840191505092915050565b60008115159050919050565b61159981611584565b82525050565b6000610120830160008301516115b860008601826114e7565b5060208301516115cb60208601826114f6565b50604083015184820360408601526115e3828261154b565b915050606083015184820360608601526115fd828261154b565b91505060808301518482036080860152611617828261154b565b91505060a083015161162c60a08601826114f6565b5060c083015161163f60c0860182611590565b5060e083015161165260e0860182611590565b506101008301516116676101008601826114f6565b508091505092915050565b6000602082019050818103600083015261168c818461159f565b905092915050565b6000602082840312156116aa576116a9611239565b5b60006116b884828501611290565b91505092915050565b6116ca81611243565b82525050565b600082825260208201905092915050565b60006116ec82611505565b6116f681856116d0565b9350611706818560208601611521565b61170f816112af565b840191505092915050565b61172381611584565b82525050565b60006101208201905061173f600083018c6116c1565b61174c602083018b611205565b818103604083015261175e818a6116e1565b9050818103606083015261177281896116e1565b9050818103608083015261178681886116e1565b905061179560a0830187611205565b6117a260c083018661171a565b6117af60e083018561171a565b6117bd610100830184611205565b9a9950505050505050505050565b7f6e76616c69642049640000000000000000000000000000000000000000000000600082015250565b60006118016009836116d0565b915061180c826117cb565b602082019050919050565b60006020820190508181036000830152611830816117f4565b9050919050565b7f5265717565737420616c72656164792065786973747300000000000000000000600082015250565b600061186d6016836116d0565b915061187882611837565b602082019050919050565b6000602082019050818103600083015261189c81611860565b9050919050565b7f4e487b7100000000000000000000000000000000000000000000000000000000600052602260045260246000fd5b600060028204905060018216806118ea57607f821691505b6020821081036118fd576118fc6118a3565b5b50919050565b60008190508160005260206000209050919050565b60006020601f8301049050919050565b600082821b905092915050565b6000600883026119657fffffffffffffffffffffffffffffffffffffffffffffffffffffffffffffffff82611928565b61196f8683611928565b95508019841693508086168417925050509392505050565b6000819050919050565b60006119ac6119a76119a284611243565b611987565b611243565b9050919050565b6000819050919050565b6119c683611991565b6119da6119d2826119b3565b848454611935565b825550505050565b600090565b6119ef6119e2565b6119fa8184846119bd565b505050565b5b81811015611a1e57611a136000826119e7565b600181019050611a00565b5050565b601f821115611a6357611a3481611903565b611a3d84611918565b81016020851015611a4c578190505b611a60611a5885611918565b8301826119ff565b50505b505050565b600082821c905092915050565b6000611a8660001984600802611a68565b1980831691505092915050565b6000611a9f8383611a75565b9150826002028217905092915050565b611ab882611505565b67ffffffffffffffff811115611ad157611ad06112c0565b5b611adb82546118d2565b611ae6828285611a22565b600060209050601f831160018114611b195760008415611b07578287015190505b611b118582611a93565b865550611b79565b601f198416611b2786611903565b60005b82811015611b4f57848901518255600182019150602085019450602081019050611b2a565b86831015611b6c5784890151611b68601f891682611a75565b8355505b6001600288020188555050505b505050505050565b7f4f6e6c7920617070726f7665722063616e20706572666f726d2074686973206160008201527f6374696f6e000000000000000000000000000000000000000000000000000000602082015250565b6000611bdd6025836116d0565b9150611be882611b81565b604082019050919050565b60006020820190508181036000830152611c0c81611bd0565b9050919050565b7f416c726561647920617070726f76656400000000000000000000000000000000600082015250565b6000611c496010836116d0565b9150611c5482611c13565b602082019050919050565b60006020820190508181036000830152611c7881611c3c565b9050919050565b7f526571756573742052656a656374656400000000000000000000000000000000600082015250565b6000611cb56010836116d0565b9150611cc082611c7f565b602082019050919050565b60006020820190508181036000830152611ce481611ca8565b9050919050565b7f4f6e6c79206f776e65722063616e20706572666f726d2074686973206163746960008201527f6f6e000000000000000000000000000000000000000000000000000000000000602082015250565b6000611d476022836116d0565b9150611d5282611ceb565b604082019050919050565b60006020820190508181036000830152611d7681611d3a565b9050919050565b7f4f6e6c79206f776e65722063616e2063616e207570646174652074686520617060008201527f70726f7665720000000000000000000000000000000000000000000000000000602082015250565b6000611dd96026836116d0565b9150611de482611d7d565b604082019050919050565b60006020820190508181036000830152611e0881611dcc565b905091905056fea26469706673582212201b0e615a0e86058c887afe62f6221548c5d6432ad8004c8742a1cc354bd8c78564736f6c634300081c0033",
    "linkReferences": {},
    "deployedLinkReferences": {}
}